:1001B4003F065B4F666D7D077F6F777C395E797193
:10019B00010802010902010A02010B06010C000110
:0801AB000D03010E00010F001D
:0B01C400EF1FAC0670011E4C70F6220D
:0801CF007F017E2FDEFEDFFA46
:0101D7002205
:1000FC00EFB40800504D900109F828287302012133
:10010C0002012502012D02013102013902013D02D9
:10011C000145020149C2A28002D2A2C2A3C2A4809C
:10012C0022C2A28002D2A2D2A3C2A48016C2A280F2
:10013C0002D2A2C2A3D2A4800AC2A28002D2A2D2AC
:10014C00A3D2A4ED9001B493F5807F647E001201DC
:05015C00C4E4F580225F
:10016100AA05AD07E4FF1200FCAD027F011200FCFD
:10017100AD037F021200FCAD137F031200FCAD142E
:100181007F041200FCAD157F051200FCAD167F0641
:0A0191001200FCAD177F070200FC0E
:10008F00AF0F050FEF60F91201CF1201CFE50FB4DB
:10009F000905050EE4F50FE50EB40905050DE4F5A8
:1000AF000EE50DB40905050CE4F50DE50CB40605D8
:1000BF00050BE4F50CE50BB40905050AE4F50BE5B2
:1000CF000AB406050509E4F50AE509B409050508AA
:1000DF00E4F509850B13850C14850D15850E168512
:0D00EF000F17AB0AAD09AF08120161809335
:03000000020003F8
:0C000300787FE4F6D8FD75811702004AF2
:10000F0002008FE493A3F8E493A34003F68001F278
:10001F0008DFF48029E493A3F85407240CC8C333F2
:10002F00C4540F4420C8834004F456800146F6DFC1
:10003F00E4800B010204081020408090019BE47EB5
:10004F00019360BCA3FF543F30E509541FFEE493B6
:10005F00A360010ECF54C025E060A840B8E493A37D
:10006F00FAE493A3F8E493A3C8C582C8CAC583CAA8
:10007F00F0A3C8C582C8CAC583CADFE9DEE780BE60
:0101B300004B
:00000001FF
