:10036A003F065B4F666D7D077F6F777C395E7971DB
:0B038600EF1FAC0670011E4C70F62249
:04029A00AD087F0725
:10029E00EFB40800504D9002ABF82828730202C349
:1002AE000202C70202CF0202D30202DB0202DF0207
:1002BE0002E70202EBC2A28002D2A2C2A3C2A480B3
:1002CE0022C2A28002D2A2D2A3C2A48016C2A2804F
:1002DE0002D2A2C2A3D2A4800AC2A28002D2A2D209
:1002EE00A3D2A4ED90036A93F5807F647E0012037F
:0502FE0086E4F58022FA
:10021700E4F50D75900FE590640F60747FE87E0339
:10022700120386E590640F6067AF90EF24F56010C6
:1002370024FE601114601324077012E4F50C800D7E
:10024700750C018008750C028003750C037590F01E
:10025700AF90EF2450601124E0601124F060112466
:10026700707013850C0C800E74048006740880026D
:10027700740C250CF50CC3E50D648094B25011E5A0
:100287009064F0600B7FE87E03120386050D80E61D
:02029700AF0CAA
:010299002242
:10000300E4F58012021775080812029A750809129E
:10001300029A75080412029A75080512029A7F065D
:10002300750806AD080F12029E7F08750801AD081A
:100033001F12029E75080212029A75080312029A91
:10004300120217750908AD087F0812029E75090987
:10005300AD087F0812029E750904AD087F081202DD
:100063009E750905AD087F0812029E750906AD0845
:100073007F0812029E7F08750901AD0812029E7F58
:1000830009750902AD081F12029E750903AD087FA9
:100093000812029E120217AB07120217750A08AD67
:1000A3000A7F0712029E750A09AD0A7F0712029E94
:1000B300750A04AD0A7F0712029E750A05AD0A7F11
:1000C3000712029E7F06750A06AD0A0F12029E7F73
:1000D30008750A01AD0A1F12029E750A02AD0A7F56
:1000E3000712029E750A03AD0A7F0712029E1202CF
:1000F30017750B08AD0B7F0812029E750B09AD0B2C
:100103007F0812029E750B04AD0B7F0812029E75C9
:100113000B05AD0B7F0812029E750B06AD0B7F0816
:1001230012029E7F08750B01AD0B12029E7F0975AB
:100133000B02AD0B1F12029E750B03AD0B7F081252
:10014300029EE50A75F00AA47C00250BFDEC35F050
:10015300FCE50875F00AA47A002509FFEA35F0FEEC
:10016300120315E50A75F00AA4FF250BE50875F0DF
:100173000AA42509FDE50B2F2DFAFF7E007C037DE4
:10018300E81203158F087E007C037DE8120303EA5F
:10019300C39FFFE49EFE7C007D641203158F09AFAD
:1001A300087E007C037DE8120303EAC39FFDE49EFF
:1001B300FCE50975F064A4FFC3ED9FFFEC95F0FE29
:1001C3007C007D0A120315AB07E50875F0E8A4FF70
:1001D300C3EA9FFFE50975F064A4FEC3EF9EFFEB3E
:1001E30075F00AA4FEC3EF9EF50A120217EF640E20
:1001F3006003020003AD087F0512029EAD097F066E
:1002030012029EAD037F0712029EAD0A7F081202FF
:040213009E02000344
:0300000002037A7E
:0C037A00787FE4F6D8FD75810D020003C9
:10030300EF8DF0A4A8F0CF8CF0A428CE8DF0A42E0E
:02031300FE22C8
:10031500BC000BBE0029EF8DF084FFADF022E4CCCC
:10032500F875F008EF2FFFEE33FEEC33FCEE9DEC95
:10033500984005FCEE9DFE0FD5F0E9E4CEFD22EDDB
:10034500F8F5F0EE8420D21CFEADF075F008EF2F25
:10035500FFED33FD4007985006D5F0F222C398FD16
:050365000FD5F0EA22B3
:00000001FF
